:06000000000013EF04F004
:100600000000FFFF20EE12F010EE06F0040EDBCF2C
:10061000E3FFE806FCE28B928B84020E056EE80E87
:10062000046E520EFFFFE82EFDD7042EFBD7052ED9
:10063000F9D7000E026E000E45EC04F0030E026EB8
:10064000030E45EC04F08B94300E26EC04F0000E03
:100650000C6E000E0B6EFFFF0B50060FD96EDA6AA0
:10066000DF5026EC04F00B4A0C2A0CBE41EF03F0DD
:100670000C500AE1050E0B5CD8A041EF03F044EFEB
:1006800003F0FFFF2BEF03F0FFFF8B848B942A0E08
:1006900026EC04F0000E0E6E000E0D6EFFFF0D50E6
:1006A000060FD96EDA6ADF5026EC04F00D4A0E2AE6
:1006B0000EBE64EF03F00E500AE1050E0D5CD8A0EB
:1006C00064EF03F067EF03F0FFFF4EEF03F0FFFF6F
:1006D0008B84010E026E010E45EC04F02A0E026EB0
:1006E000040E45EC04F0010E026E020E45EC04F01F
:1006F000280E026E050E45EC04F0060E026E060E84
:1007000045EC04F0010E026E110E45EC04F00A0EE9
:10071000026E000E45EC04F08B821200FFFFFFFF1B
:10072000936852EC04F001EC03F0050E106EC30E5A
:100730000F6E4F0EFFFFE82EFDD70F2EFBD7102EAA
:10074000F9D7FFFF8B92A20EFFFFE82EFDD700D056
:10075000070E37EC04F00F6E0FA8B1EF03F0B4EF03
:1007600003F0FFFFBAEF03F0FFFF8B94E10E26ECDE
:1007700004F08B84FFFF8B94A00E26EC04F08150D4
:1007800026EC04F08B848B82190EFFFFE82EFDD738
:100790008B92FFFF070E37EC04F00F6E300E0F1632
:1007A000D8B4D5EF03F0D8EF03F0FFFFC9EF03F0A3
:1007B000FFFF070E37EC04F0116E11AAE2EF03F011
:1007C000E5EF03F0FFFFEDEF03F0FFFF200E026EF9
:1007D000070E45EC04F001EF04F0FFFF11A8F3EF62
:1007E00003F0F6EF03F0FFFF01EF04F0FFFF8B943F
:1007F000E10E26EC04F08B84100E026E070E45EC21
:1008000004F0FFFF0A0E106E850E0F6E9F0EFFFFA5
:10081000E82EFDD70F2EFBD7102EF9D700D0A1EF71
:1008200003F001EF00F0BC0EF66E080EF76E000E3E
:10083000F86E00EE12F010EE05F00900F5CFEEFFB5
:10084000E550E150FAE100018FEF03F0FFFF016E88
:1008500001C0C9FFFFFFC7A030EF04F033EF04F081
:10086000FFFF2AEF04F0FFFFC9501200FFFFFFFF58
:10087000026E8B94025026EC04F0FF0E26EC04F07E
:10088000036E8B8403501200FFFFFFFF036E8B94F7
:100890000350200926EC04F0025026EC04F08B846F
:1008A0001200FFFFFFFF94969488949A9492949478
:1008B000400EC76E200EC66E1200FFFF010101013F
:0108C0000136
:0208C200FFFF36
:020000040030CA
:04000000FF220E0EBF
:0200060081FF78
:00000001FF
