:06000000000045EF03F0D3
:100600000000FFFF3BEC03F0929093688980FFFFAE
:1006100081CF04F089900C0EFFFFE82EFDD700D0AB
:1006200004502AEC03F089800C0EFFFFE82EFDD762
:1006300000D00A0E036E850E026E9F0EFFFFE82E9D
:10064000FDD7022EFBD7032EF9D700D007EF03F01A
:1006500001EF00F0FFFF016E01C0C9FFFFFFC7A05F
:1006600034EF03F037EF03F0FFFF2EEF03F0FFFF4F
:10067000C9501200FFFFFFFF94969488949A400E91
:10068000C76E200EC66E1200FFFF000101EF03F0DF
:02069000FFFF6A
:020000040030CA
:04000000FF220E0EBF
:0200060081FF78
:00000001FF
