:060000000000D4EF03F044
:100600000000FFFF20EE12F010EE06F0040EDBCF2C
:10061000E3FFE806FCE28B928B84020E056EE80E87
:10062000046E520EFFFFE82EFDD7042EFBD7052ED9
:10063000F9D7000E026E000E07EC04F0030E026EF6
:10064000030E07EC04F08B94300EE8EC03F0000E80
:100650000C6E000E0B6EFFFF0B50060FD96EDA6AA0
:10066000DF50E8EC03F00B4A0C2A0CBE41EF03F01C
:100670000C500AE1050E0B5CD8A041EF03F044EFEB
:1006800003F0FFFF2BEF03F0FFFF8B848B942A0E08
:10069000E8EC03F0000E0E6E000E0D6EFFFF0D5025
:1006A000060FD96EDA6ADF50E8EC03F00D4A0E2A25
:1006B0000EBE64EF03F00E500AE1050E0D5CD8A0EB
:1006C00064EF03F067EF03F0FFFF4EEF03F0FFFF6F
:1006D0008B84010E026E010E07EC04F02A0E026EEE
:1006E000040E07EC04F0010E026E020E07EC04F09B
:1006F000280E026E050E07EC04F0060E026E060EC2
:1007000007EC04F0010E026E110E07EC04F00B0E64
:10071000026E000E07EC04F08B821200FFFFFFFF59
:10072000936A14EC04F001EC03F0050E106EC30E96
:100730000F6E4F0EFFFFE82EFDD70F2EFBD7102EAA
:10074000F9D7FFFF070EF9EC03F0116E11ACABEF18
:1007500003F0AEEF03F0FFFFA1EF03F0FFFFFFFF99
:100760008B94610EE8EC03F0FF0EE8EC03F0176EDB
:100770008B8417C08AFF070EF9EC03F0170EF9EC13
:1007800003F00F6E0FA0C7EF03F0CAEF03F0FFFFF7
:10079000AFEF03F0FFFF400E026E070E07EC04F010
:1007A000A1EF03F001EF00F0400EF66E080EF76EB9
:1007B000000EF86E00EE12F010EE05F00900F5CF15
:1007C000EEFFE550E150FAE1176A00018FEF03F008
:1007D000FFFF016E01C0C9FFFFFFC7A0F2EF03F0EA
:1007E000F5EF03F0FFFFECEF03F0FFFFC95012003D
:1007F000FFFFFFFF026E8B940250E8EC03F0FF0E48
:10080000E8EC03F0036E8B8403501200FFFFFFFF40
:10081000036E8B9403502009E8EC03F00250E8ECDF
:1008200003F08B841200FFFFFFFF94969488949A44
:1008300094929494400EC76E200EC66E1200FFFF75
:050840000101010101AE
:02084600FFFFB2
:020000040030CA
:04000000FF220E0EBF
:0200060081FF78
:00000001FF
